{
  "contractName": "Manager",
  "abi": [
    {
      "constant": false,
      "inputs": [
        {
          "name": "_code",
          "type": "string"
        },
        {
          "name": "_brand",
          "type": "string"
        },
        {
          "name": "_model",
          "type": "string"
        },
        {
          "name": "_status",
          "type": "uint256"
        },
        {
          "name": "_description",
          "type": "string"
        },
        {
          "name": "_manufactuerName",
          "type": "string"
        },
        {
          "name": "_manufactuerLocation",
          "type": "string"
        },
        {
          "name": "_manufactuerTimestamp",
          "type": "string"
        }
      ],
      "name": "registerProduct",
      "outputs": [
        {
          "name": "",
          "type": "uint256"
        }
      ],
      "payable": false,
      "stateMutability": "nonpayable",
      "type": "function"
    },
    {
      "constant": false,
      "inputs": [
        {
          "name": "_hashedEmail",
          "type": "string"
        },
        {
          "name": "_name",
          "type": "string"
        },
        {
          "name": "_phone",
          "type": "string"
        }
      ],
      "name": "registerCustomer",
      "outputs": [
        {
          "name": "",
          "type": "bool"
        }
      ],
      "payable": true,
      "stateMutability": "payable",
      "type": "function"
    },
    {
      "constant": false,
      "inputs": [
        {
          "name": "_hashedEmail",
          "type": "string"
        },
        {
          "name": "_sellerName",
          "type": "string"
        },
        {
          "name": "_sellerLocation",
          "type": "string"
        }
      ],
      "name": "registerSeller",
      "outputs": [
        {
          "name": "",
          "type": "uint256"
        }
      ],
      "payable": true,
      "stateMutability": "payable",
      "type": "function"
    },
    {
      "constant": false,
      "inputs": [
        {
          "name": "_hashedEmail",
          "type": "string"
        },
        {
          "name": "_manufactName",
          "type": "string"
        },
        {
          "name": "_manufactLocation",
          "type": "string"
        }
      ],
      "name": "registerManufact",
      "outputs": [
        {
          "name": "",
          "type": "uint256"
        }
      ],
      "payable": true,
      "stateMutability": "payable",
      "type": "function"
    },
    {
      "constant": true,
      "inputs": [
        {
          "name": "_code",
          "type": "string"
        }
      ],
      "name": "getCustomerDetails",
      "outputs": [
        {
          "name": "",
          "type": "string"
        },
        {
          "name": "",
          "type": "string"
        }
      ],
      "payable": false,
      "stateMutability": "view",
      "type": "function"
    },
    {
      "constant": true,
      "inputs": [
        {
          "name": "_code",
          "type": "string"
        }
      ],
      "name": "getSellerDetails",
      "outputs": [
        {
          "name": "",
          "type": "string"
        },
        {
          "name": "",
          "type": "string"
        }
      ],
      "payable": false,
      "stateMutability": "view",
      "type": "function"
    },
    {
      "constant": true,
      "inputs": [
        {
          "name": "_code",
          "type": "string"
        }
      ],
      "name": "getManufactDetails",
      "outputs": [
        {
          "name": "",
          "type": "string"
        },
        {
          "name": "",
          "type": "string"
        }
      ],
      "payable": false,
      "stateMutability": "view",
      "type": "function"
    },
    {
      "constant": true,
      "inputs": [
        {
          "name": "_code",
          "type": "string"
        }
      ],
      "name": "getNotOwnedCodeDetails",
      "outputs": [
        {
          "name": "",
          "type": "string"
        },
        {
          "name": "",
          "type": "string"
        },
        {
          "name": "",
          "type": "uint256"
        },
        {
          "name": "",
          "type": "string"
        },
        {
          "name": "",
          "type": "string"
        },
        {
          "name": "",
          "type": "string"
        },
        {
          "name": "",
          "type": "string"
        }
      ],
      "payable": false,
      "stateMutability": "view",
      "type": "function"
    },
    {
      "constant": true,
      "inputs": [
        {
          "name": "_code",
          "type": "string"
        }
      ],
      "name": "getOwnedCodeDetails",
      "outputs": [
        {
          "name": "",
          "type": "string"
        },
        {
          "name": "",
          "type": "string"
        }
      ],
      "payable": false,
      "stateMutability": "view",
      "type": "function"
    },
    {
      "constant": true,
      "inputs": [
        {
          "name": "_customer",
          "type": "string"
        }
      ],
      "name": "getCodes",
      "outputs": [
        {
          "name": "",
          "type": "string[]"
        }
      ],
      "payable": false,
      "stateMutability": "view",
      "type": "function"
    },
    {
      "constant": false,
      "inputs": [
        {
          "name": "_code",
          "type": "string"
        },
        {
          "name": "_hashedEmailseller",
          "type": "string"
        }
      ],
      "name": "addSellerToCode",
      "outputs": [
        {
          "name": "",
          "type": "uint256"
        }
      ],
      "payable": true,
      "stateMutability": "payable",
      "type": "function"
    },
    {
      "constant": false,
      "inputs": [
        {
          "name": "_code",
          "type": "string"
        },
        {
          "name": "_customer",
          "type": "string"
        }
      ],
      "name": "reportStolen",
      "outputs": [
        {
          "name": "",
          "type": "bool"
        }
      ],
      "payable": true,
      "stateMutability": "payable",
      "type": "function"
    },
    {
      "constant": false,
      "inputs": [
        {
          "name": "_code",
          "type": "string"
        },
        {
          "name": "_oldCustomer",
          "type": "string"
        },
        {
          "name": "_newCustomer",
          "type": "string"
        }
      ],
      "name": "changeOwner",
      "outputs": [
        {
          "name": "",
          "type": "bool"
        }
      ],
      "payable": true,
      "stateMutability": "payable",
      "type": "function"
    },
    {
      "constant": false,
      "inputs": [
        {
          "name": "_code",
          "type": "string"
        },
        {
          "name": "_seller",
          "type": "string"
        },
        {
          "name": "_customer",
          "type": "string"
        }
      ],
      "name": "initialOwner",
      "outputs": [
        {
          "name": "",
          "type": "bool"
        }
      ],
      "payable": true,
      "stateMutability": "payable",
      "type": "function"
    }
  ],
  "bytecode": "0x608060405234801561001057600080fd5b5061419a806100206000396000f3006080604052600436106100d0576000357c0100000000000000000000000000000000000000000000000000000000900463ffffffff16806302db9a47146100d557806306cf3e0714610105578063285e9e161461014357806339c6d70e146101815780637ab9c57c146101be57806391904ff814610201578063c5e6971714610231578063c91e74e314610261578063cd263b561461029f578063ceff2efc146102cf578063d55f69f6146102ff578063e4986c891461033d578063f8e66a4d1461036d578063ff9010401461039d575b600080fd5b6100ef60048036036100ea9190810190613c48565b6103da565b6040516100fc919061403e565b60405180910390f35b34801561011157600080fd5b5061012c60048036036101279190810190613b9b565b6104da565b60405161013a929190613f6e565b60405180910390f35b34801561014f57600080fd5b5061016a60048036036101659190810190613b9b565b6106fa565b604051610178929190613f6e565b60405180910390f35b34801561018d57600080fd5b506101a860048036036101a39190810190613cdf565b610a00565b6040516101b5919061403e565b60405180910390f35b3480156101ca57600080fd5b506101e560048036036101e09190810190613b9b565b610c5b565b6040516101f89796959493929190613fa5565b60405180910390f35b61021b60048036036102169190810190613bdc565b61132a565b6040516102289190613f53565b60405180910390f35b61024b60048036036102469190810190613c48565b6115e2565b6040516102589190613f53565b60405180910390f35b34801561026d57600080fd5b5061028860048036036102839190810190613b9b565b611a7e565b604051610296929190613f6e565b60405180910390f35b6102b960048036036102b49190810190613bdc565b611c9e565b6040516102c6919061403e565b60405180910390f35b6102e960048036036102e49190810190613c48565b611d2d565b6040516102f69190613f53565b60405180910390f35b34801561030b57600080fd5b5061032660048036036103219190810190613b9b565b612fe2565b604051610334929190613f6e565b60405180910390f35b61035760048036036103529190810190613c48565b613202565b604051610364919061403e565b60405180910390f35b61038760048036036103829190810190613c48565b613302565b6040516103949190613f53565b60405180910390f35b3480156103a957600080fd5b506103c460048036036103bf9190810190613b9b565b6134ee565b6040516103d19190613f31565b60405180910390f35b600080838160000190805190602001906103f59291906137f6565b508281600101908051906020019061040e9291906137f6565b50806004866040518082805190602001908083835b6020831015156104485780518252602082019150602081019050602083039250610423565b6001836020036101000a0380198251168184511680821785525050505050509050019150509081526020016040518091039020600082018160000190805460018160011615610100020316600290046104a2929190613876565b50600182018160010190805460018160011615610100020316600290046104ca929190613876565b5090505060019150509392505050565b6060806004836040518082805190602001908083835b60208310151561051557805182526020820191506020810190506020830392506104f0565b6001836020036101000a03801982511681845116808217855250505050505090500191505090815260200160405180910390206000016004846040518082805190602001908083835b602083101515610583578051825260208201915060208101905060208303925061055e565b6001836020036101000a0380198251168184511680821785525050505050509050019150509081526020016040518091039020600101818054600181600116156101000203166002900480601f01602080910402602001604051908101604052809291908181526020018280546001816001161561010002031660029004801561064e5780601f106106235761010080835404028352916020019161064e565b820191906000526020600020905b81548152906001019060200180831161063157829003601f168201915b50505050509150808054600181600116156101000203166002900480601f0160208091040260200160405190810160405280929190818152602001828054600181600116156101000203166002900480156106ea5780601f106106bf576101008083540402835291602001916106ea565b820191906000526020600020905b8154815290600101906020018083116106cd57829003601f168201915b5050505050905091509150915091565b60608060036001846040518082805190602001908083835b6020831015156107375780518252602082019150602081019050602083039250610712565b6001836020036101000a038019825116818451168082178552505050505050905001915050908152602001604051809103902060070160405180828054600181600116156101000203166002900480156107c85780601f106107a65761010080835404028352918201916107c8565b820191906000526020600020905b8154815290600101906020018083116107b4575b5050915050908152602001604051809103902060000160036001856040518082805190602001908083835b60208310151561081857805182526020820191506020810190506020830392506107f3565b6001836020036101000a038019825116818451168082178552505050505050905001915050908152602001604051809103902060070160405180828054600181600116156101000203166002900480156108a95780601f106108875761010080835404028352918201916108a9565b820191906000526020600020905b815481529060010190602001808311610895575b50509150509081526020016040518091039020600101818054600181600116156101000203166002900480601f0160208091040260200160405190810160405280929190818152602001828054600181600116156101000203166002900480156109545780601f1061092957610100808354040283529160200191610954565b820191906000526020600020905b81548152906001019060200180831161093757829003601f168201915b50505050509150808054600181600116156101000203166002900480601f0160208091040260200160405190810160405280929190818152602001828054600181600116156101000203166002900480156109f05780601f106109c5576101008083540402835291602001916109f0565b820191906000526020600020905b8154815290600101906020018083116109d357829003601f168201915b5050505050905091509150915091565b60008088816001019080519060200190610a1b9291906137f6565b5087816002019080519060200190610a349291906137f6565b5086816000018190555085816003019080519060200190610a569291906137f6565b5084816004019080519060200190610a6f9291906137f6565b5083816005019080519060200190610a889291906137f6565b5082816006019080519060200190610aa19291906137f6565b508060018b6040518082805190602001908083835b602083101515610adb5780518252602082019150602081019050602083039250610ab6565b6001836020036101000a03801982511681845116808217855250505050505090500191505090815260200160405180910390206000820154816000015560018201816001019080546001816001161561010002031660029004610b3f929190613876565b5060028201816002019080546001816001161561010002031660029004610b67929190613876565b5060038201816003019080546001816001161561010002031660029004610b8f929190613876565b5060048201816004019080546001816001161561010002031660029004610bb7929190613876565b5060058201816005019080546001816001161561010002031660029004610bdf929190613876565b5060068201816006019080546001816001161561010002031660029004610c07929190613876565b5060078201816007019080546001816001161561010002031660029004610c2f929190613876565b506008820181600801908054610c469291906138fd565b50905050600191505098975050505050505050565b60608060006060806060806001886040518082805190602001908083835b602083101515610c9e5780518252602082019150602081019050602083039250610c79565b6001836020036101000a03801982511681845116808217855250505050505090500191505090815260200160405180910390206001016001896040518082805190602001908083835b602083101515610d0c5780518252602082019150602081019050602083039250610ce7565b6001836020036101000a038019825116818451168082178552505050505050905001915050908152602001604051809103902060020160018a6040518082805190602001908083835b602083101515610d7a5780518252602082019150602081019050602083039250610d55565b6001836020036101000a03801982511681845116808217855250505050505090500191505090815260200160405180910390206000015460018b6040518082805190602001908083835b602083101515610de95780518252602082019150602081019050602083039250610dc4565b6001836020036101000a038019825116818451168082178552505050505050905001915050908152602001604051809103902060030160018c6040518082805190602001908083835b602083101515610e575780518252602082019150602081019050602083039250610e32565b6001836020036101000a038019825116818451168082178552505050505050905001915050908152602001604051809103902060040160018d6040518082805190602001908083835b602083101515610ec55780518252602082019150602081019050602083039250610ea0565b6001836020036101000a038019825116818451168082178552505050505050905001915050908152602001604051809103902060050160018e6040518082805190602001908083835b602083101515610f335780518252602082019150602081019050602083039250610f0e565b6001836020036101000a0380198251168184511680821785525050505050509050019150509081526020016040518091039020600601868054600181600116156101000203166002900480601f016020809104026020016040519081016040528092919081815260200182805460018160011615610100020316600290048015610ffe5780601f10610fd357610100808354040283529160200191610ffe565b820191906000526020600020905b815481529060010190602001808311610fe157829003601f168201915b50505050509650858054600181600116156101000203166002900480601f01602080910402602001604051908101604052809291908181526020018280546001816001161561010002031660029004801561109a5780601f1061106f5761010080835404028352916020019161109a565b820191906000526020600020905b81548152906001019060200180831161107d57829003601f168201915b50505050509550838054600181600116156101000203166002900480601f0160208091040260200160405190810160405280929190818152602001828054600181600116156101000203166002900480156111365780601f1061110b57610100808354040283529160200191611136565b820191906000526020600020905b81548152906001019060200180831161111957829003601f168201915b50505050509350828054600181600116156101000203166002900480601f0160208091040260200160405190810160405280929190818152602001828054600181600116156101000203166002900480156111d25780601f106111a7576101008083540402835291602001916111d2565b820191906000526020600020905b8154815290600101906020018083116111b557829003601f168201915b50505050509250818054600181600116156101000203166002900480601f01602080910402602001604051908101604052809291908181526020018280546001816001161561010002031660029004801561126e5780601f106112435761010080835404028352916020019161126e565b820191906000526020600020905b81548152906001019060200180831161125157829003601f168201915b50505050509150808054600181600116156101000203166002900480601f01602080910402602001604051908101604052809291908181526020018280546001816001161561010002031660029004801561130a5780601f106112df5761010080835404028352916020019161130a565b820191906000526020600020905b8154815290600101906020018083116112ed57829003601f168201915b505050505090509650965096509650965096509650919395979092949650565b6000806002836040518082805190602001908083835b6020831015156113655780518252602082019150602081019050602083039250611340565b6001836020036101000a038019825116818451168082178552505050505050905001915050908152602001604051809103902060030160009054906101000a900460ff16156115d657600090506002836040518082805190602001908083835b6020831015156113ea57805182526020820191506020810190506020830392506113c5565b6001836020036101000a0380198251168184511680821785525050505050509050019150509081526020016040518091039020600201805490508110156115d5576115526002846040518082805190602001908083835b6020831015156114665780518252602082019150602081019050602083039250611441565b6001836020036101000a0380198251168184511680821785525050505050509050019150509081526020016040518091039020600201828154811015156114a957fe5b906000526020600020018054600181600116156101000203166002900480601f0160208091040260200160405190810160405280929190818152602001828054600181600116156101000203166002900480156115475780601f1061151c57610100808354040283529160200191611547565b820191906000526020600020905b81548152906001019060200180831161152a57829003601f168201915b505050505085613645565b156115cc5760026001856040518082805190602001908083835b602083101515611591578051825260208201915060208101905060208303925061156c565b6001836020036101000a0380198251168184511680821785525050505050509050019150509081526020016040518091039020600001819055505b600191506115db565b5b600091505b5092915050565b60008060006116f76001876040518082805190602001908083835b60208310151561162257805182526020820191506020810190506020830392506115fd565b6001836020036101000a03801982511681845116808217855250505050505090500191505090815260200160405180910390206007018054600181600116156101000203166002900480601f0160208091040260200160405190810160405280929190818152602001828054600181600116156101000203166002900480156116ec5780601f106116c1576101008083540402835291602001916116ec565b820191906000526020600020905b8154815290600101906020018083116116cf57829003601f168201915b505050505086613645565b15611a70576002846040518082805190602001908083835b602083101515611734578051825260208201915060208101905060208303925061170f565b6001836020036101000a038019825116818451168082178552505050505050905001915050908152602001604051809103902060030160009054906101000a900460ff1615611a6f576001866040518082805190602001908083835b6020831015156117b55780518252602082019150602081019050602083039250611790565b6001836020036101000a03801982511681845116808217855250505050505090500191505090815260200160405180910390206008018490806001815401808255809150509060018203906000526020600020016000909192909190915090805190602001906118269291906137f6565b5050600180876040518082805190602001908083835b602083101515611861578051825260208201915060208101905060208303925061183c565b6001836020036101000a0380198251168184511680821785525050505050509050019150509081526020016040518091039020600001819055506002846040518082805190602001908083835b6020831015156118d357805182526020820191506020810190506020830392506118ae565b6001836020036101000a038019825116818451168082178552505050505050905001915050908152602001604051809103902060020180549050905060008114156119c8576002846040518082805190602001908083835b602083101515611950578051825260208201915060208101905060208303925061192b565b6001836020036101000a03801982511681845116808217855250505050505090500191505090815260200160405180910390206002018690806001815401808255809150509060018203906000526020600020016000909192909190915090805190602001906119c19291906137f6565b5050611a66565b856002856040518082805190602001908083835b602083101515611a0157805182526020820191506020810190506020830392506119dc565b6001836020036101000a038019825116818451168082178552505050505050905001915050908152602001604051809103902060020160018303815481101515611a4757fe5b906000526020600020019080519060200190611a649291906137f6565b505b60019250611a75565b5b600092505b50509392505050565b6060806002836040518082805190602001908083835b602083101515611ab95780518252602082019150602081019050602083039250611a94565b6001836020036101000a03801982511681845116808217855250505050505090500191505090815260200160405180910390206000016002846040518082805190602001908083835b602083101515611b275780518252602082019150602081019050602083039250611b02565b6001836020036101000a0380198251168184511680821785525050505050509050019150509081526020016040518091039020600101818054600181600116156101000203166002900480601f016020809104026020016040519081016040528092919081815260200182805460018160011615610100020316600290048015611bf25780601f10611bc757610100808354040283529160200191611bf2565b820191906000526020600020905b815481529060010190602001808311611bd557829003601f168201915b50505050509150808054600181600116156101000203166002900480601f016020809104026020016040519081016040528092919081815260200182805460018160011615610100020316600290048015611c8e5780601f10611c6357610100808354040283529160200191611c8e565b820191906000526020600020905b815481529060010190602001808311611c7157829003601f168201915b5050505050905091509150915091565b6000816001846040518082805190602001908083835b602083101515611cd95780518252602082019150602081019050602083039250611cb4565b6001836020036101000a03801982511681845116808217855250505050505090500191505090815260200160405180910390206007019080519060200190611d229291906137f6565b506001905092915050565b6000806000611d3a61396d565b6000611d446139ba565b6000611d4e6139ba565b600080965060018c6040518082805190602001908083835b602083101515611d8b5780518252602082019150602081019050602083039250611d66565b6001836020036101000a0380198251168184511680821785525050505050509050019150509081526020016040518091039020610120604051908101604052908160008201548152602001600182018054600181600116156101000203166002900480601f016020809104026020016040519081016040528092919081815260200182805460018160011615610100020316600290048015611e6e5780601f10611e4357610100808354040283529160200191611e6e565b820191906000526020600020905b815481529060010190602001808311611e5157829003601f168201915b50505050508152602001600282018054600181600116156101000203166002900480601f016020809104026020016040519081016040528092919081815260200182805460018160011615610100020316600290048015611f105780601f10611ee557610100808354040283529160200191611f10565b820191906000526020600020905b815481529060010190602001808311611ef357829003601f168201915b50505050508152602001600382018054600181600116156101000203166002900480601f016020809104026020016040519081016040528092919081815260200182805460018160011615610100020316600290048015611fb25780601f10611f8757610100808354040283529160200191611fb2565b820191906000526020600020905b815481529060010190602001808311611f9557829003601f168201915b50505050508152602001600482018054600181600116156101000203166002900480601f0160208091040260200160405190810160405280929190818152602001828054600181600116156101000203166002900480156120545780601f1061202957610100808354040283529160200191612054565b820191906000526020600020905b81548152906001019060200180831161203757829003601f168201915b50505050508152602001600582018054600181600116156101000203166002900480601f0160208091040260200160405190810160405280929190818152602001828054600181600116156101000203166002900480156120f65780601f106120cb576101008083540402835291602001916120f6565b820191906000526020600020905b8154815290600101906020018083116120d957829003601f168201915b50505050508152602001600682018054600181600116156101000203166002900480601f0160208091040260200160405190810160405280929190818152602001828054600181600116156101000203166002900480156121985780601f1061216d57610100808354040283529160200191612198565b820191906000526020600020905b81548152906001019060200180831161217b57829003601f168201915b50505050508152602001600782018054600181600116156101000203166002900480601f01602080910402602001604051908101604052809291908181526020018280546001816001161561010002031660029004801561223a5780601f1061220f5761010080835404028352916020019161223a565b820191906000526020600020905b81548152906001019060200180831161221d57829003601f168201915b5050505050815260200160088201805480602002602001604051908101604052809291908181526020016000905b82821015612324578382906000526020600020018054600181600116156101000203166002900480601f0160208091040260200160405190810160405280929190818152602001828054600181600116156101000203166002900480156123105780601f106122e557610100808354040283529160200191612310565b820191906000526020600020905b8154815290600101906020018083116122f357829003601f168201915b505050505081526020019060010190612268565b5050505081525050955085610100015151945060028b6040518082805190602001908083835b60208310151561236f578051825260208201915060208101905060208303925061234a565b6001836020036101000a038019825116818451168082178552505050505050905001915050908152602001604051809103902060806040519081016040529081600082018054600181600116156101000203166002900480601f0160208091040260200160405190810160405280929190818152602001828054600181600116156101000203166002900480156124475780601f1061241c57610100808354040283529160200191612447565b820191906000526020600020905b81548152906001019060200180831161242a57829003601f168201915b50505050508152602001600182018054600181600116156101000203166002900480601f0160208091040260200160405190810160405280929190818152602001828054600181600116156101000203166002900480156124e95780601f106124be576101008083540402835291602001916124e9565b820191906000526020600020905b8154815290600101906020018083116124cc57829003601f168201915b5050505050815260200160028201805480602002602001604051908101604052809291908181526020016000905b828210156125d3578382906000526020600020018054600181600116156101000203166002900480601f0160208091040260200160405190810160405280929190818152602001828054600181600116156101000203166002900480156125bf5780601f10612594576101008083540402835291602001916125bf565b820191906000526020600020905b8154815290600101906020018083116125a257829003601f168201915b505050505081526020019060010190612517565b5050505081526020016003820160009054906101000a900460ff161515151581525050935060028b6040518082805190602001908083835b602083101515612630578051825260208201915060208101905060208303925061260b565b6001836020036101000a038019825116818451168082178552505050505050905001915050908152602001604051809103902060020180549050925060028a6040518082805190602001908083835b6020831015156126a4578051825260208201915060208101905060208303925061267f565b6001836020036101000a038019825116818451168082178552505050505050905001915050908152602001604051809103902060806040519081016040529081600082018054600181600116156101000203166002900480601f01602080910402602001604051908101604052809291908181526020018280546001816001161561010002031660029004801561277c5780601f106127515761010080835404028352916020019161277c565b820191906000526020600020905b81548152906001019060200180831161275f57829003601f168201915b50505050508152602001600182018054600181600116156101000203166002900480601f01602080910402602001604051908101604052809291908181526020018280546001816001161561010002031660029004801561281e5780601f106127f35761010080835404028352916020019161281e565b820191906000526020600020905b81548152906001019060200180831161280157829003601f168201915b5050505050815260200160028201805480602002602001604051908101604052809291908181526020016000905b82821015612908578382906000526020600020018054600181600116156101000203166002900480601f0160208091040260200160405190810160405280929190818152602001828054600181600116156101000203166002900480156128f45780601f106128c9576101008083540402835291602001916128f4565b820191906000526020600020905b8154815290600101906020018083116128d757829003601f168201915b50505050508152602001906001019061284c565b5050505081526020016003820160009054906101000a900460ff16151515158152505091508360600151801561293f575081606001515b15612fce57600097505b828810156129915761297684604001518981518110151561296657fe5b906020019060200201518d613645565b156129845760019650612991565b8780600101985050612949565b600115158715151415612fcd57600097505b84881015612a82576129d1866101000151898151811015156129c157fe5b906020019060200201518c613645565b15612a75578960018d6040518082805190602001908083835b602083101515612a0f57805182526020820191506020810190506020830392506129ea565b6001836020036101000a038019825116818451168082178552505050505050905001915050908152602001604051809103902060080189815481101515612a5257fe5b906000526020600020019080519060200190612a6f9291906137f6565b50612a82565b87806001019850506129a3565b600097505b82881015612fcc57612bb660028c6040518082805190602001908083835b602083101515612aca5780518252602082019150602081019050602083039250612aa5565b6001836020036101000a038019825116818451168082178552505050505050905001915050908152602001604051809103902060020189815481101515612b0d57fe5b906000526020600020018054600181600116156101000203166002900480601f016020809104026020016040519081016040528092919081815260200182805460018160011615610100020316600290048015612bab5780601f10612b8057610100808354040283529160200191612bab565b820191906000526020600020905b815481529060010190602001808311612b8e57829003601f168201915b50505050508d613645565b15612fbf57612c328860028d6040518082805190602001908083835b602083101515612bf75780518252602082019150602081019050602083039250612bd2565b6001836020036101000a038019825116818451168082178552505050505050905001915050908152602001604051809103902060020161371e565b5060028a6040518082805190602001908083835b602083101515612c6b5780518252602082019150602081019050602083039250612c46565b6001836020036101000a03801982511681845116808217855250505050505090500191505090815260200160405180910390206002018054905090506000811415612e3c5760028a6040518082805190602001908083835b602083101515612ce85780518252602082019150602081019050602083039250612cc3565b6001836020036101000a03801982511681845116808217855250505050505090500191505090815260200160405180910390206002018c9080600181540180825580915050906001820390600052602060002001600090919290919091509080519060200190612d599291906137f6565b505060028a6040518082805190602001908083835b602083101515612d935780518252602082019150602081019050602083039250612d6e565b6001836020036101000a03801982511681845116808217855250505050505090500191505090815260200160405180910390206002018060018154018082558091505090600182039060005260206000200160006040805190810160405280600481526020017f6861636b0000000000000000000000000000000000000000000000000000000081525090919091509080519060200190612e359291906137f6565b5050612fb6565b8b60028b6040518082805190602001908083835b602083101515612e755780518252602082019150602081019050602083039250612e50565b6001836020036101000a038019825116818451168082178552505050505050905001915050908152602001604051809103902060020160018303815481101515612ebb57fe5b906000526020600020019080519060200190612ed89291906137f6565b5060028a6040518082805190602001908083835b602083101515612f115780518252602082019150602081019050602083039250612eec565b6001836020036101000a03801982511681845116808217855250505050505090500191505090815260200160405180910390206002018060018154018082558091505090600182039060005260206000200160006040805190810160405280600481526020017f6861636b0000000000000000000000000000000000000000000000000000000081525090919091509080519060200190612fb39291906137f6565b50505b60019850612fd3565b8780600101985050612a87565b5b5b600098505b50505050505050509392505050565b6060806003836040518082805190602001908083835b60208310151561301d5780518252602082019150602081019050602083039250612ff8565b6001836020036101000a03801982511681845116808217855250505050505090500191505090815260200160405180910390206000016003846040518082805190602001908083835b60208310151561308b5780518252602082019150602081019050602083039250613066565b6001836020036101000a0380198251168184511680821785525050505050509050019150509081526020016040518091039020600101818054600181600116156101000203166002900480601f0160208091040260200160405190810160405280929190818152602001828054600181600116156101000203166002900480156131565780601f1061312b57610100808354040283529160200191613156565b820191906000526020600020905b81548152906001019060200180831161313957829003601f168201915b50505050509150808054600181600116156101000203166002900480601f0160208091040260200160405190810160405280929190818152602001828054600181600116156101000203166002900480156131f25780601f106131c7576101008083540402835291602001916131f2565b820191906000526020600020905b8154815290600101906020018083116131d557829003601f168201915b5050505050905091509150915091565b6000808381600001908051906020019061321d9291906137f6565b50828160010190805190602001906132369291906137f6565b50806003866040518082805190602001908083835b602083101515613270578051825260208201915060208101905060208303925061324b565b6001836020036101000a0380198251168184511680821785525050505050509050019150509081526020016040518091039020600082018160000190805460018160011615610100020316600290046132ca929190613876565b50600182018160010190805460018160011615610100020316600290046132f2929190613876565b5090505060019150509392505050565b6000806002856040518082805190602001908083835b60208310151561333d5780518252602082019150602081019050602083039250613318565b6001836020036101000a038019825116818451168082178552505050505050905001915050908152602001604051809103902060030160009054906101000a900460ff161561338f57600091506134e6565b838160000190805190602001906133a79291906137f6565b50828160010190805190602001906133c09291906137f6565b5060018160030160006101000a81548160ff021916908315150217905550806002866040518082805190602001908083835b60208310151561341757805182526020820191506020810190506020830392506133f2565b6001836020036101000a038019825116818451168082178552505050505050905001915050908152602001604051809103902060008201816000019080546001816001161561010002031660029004613471929190613876565b5060018201816001019080546001816001161561010002031660029004613499929190613876565b5060028201816002019080546134b09291906138fd565b506003820160009054906101000a900460ff168160030160006101000a81548160ff021916908315150217905550905050600191505b509392505050565b60606002826040518082805190602001908083835b6020831015156135285780518252602082019150602081019050602083039250613503565b6001836020036101000a0380198251168184511680821785525050505050509050019150509081526020016040518091039020600201805480602002602001604051908101604052809291908181526020016000905b8282101561363a578382906000526020600020018054600181600116156101000203166002900480601f0160208091040260200160405190810160405280929190818152602001828054600181600116156101000203166002900480156136265780601f106135fb57610100808354040283529160200191613626565b820191906000526020600020905b81548152906001019060200180831161360957829003601f168201915b50505050508152602001906001019061357e565b505050509050919050565b6000816040518082805190602001908083835b60208310151561367d5780518252602082019150602081019050602083039250613658565b6001836020036101000a038019825116818451168082178552505050505050905001915050604051809103902060001916836040518082805190602001908083835b6020831015156136e457805182526020820191506020810190506020830392506136bf565b6001836020036101000a03801982511681845116808217855250505050505090500191505060405180910390206000191614905092915050565b60008082805490508410151561373757600091506137ef565b8390505b60018380549050038110156137aa57826001820181548110151561375b57fe5b90600052602060002001838281548110151561377357fe5b90600052602060002001908054600181600116156101000203166002900461379c9291906139e5565b50808060010191505061373b565b8260018480549050038154811015156137bf57fe5b9060005260206000200160006137d59190613a6c565b828054809190600190036137e99190613ab4565b50600191505b5092915050565b828054600181600116156101000203166002900490600052602060002090601f016020900481019282601f1061383757805160ff1916838001178555613865565b82800160010185558215613865579182015b82811115613864578251825591602001919060010190613849565b5b5090506138729190613ae0565b5090565b828054600181600116156101000203166002900490600052602060002090601f016020900481019282601f106138af57805485556138ec565b828001600101855582156138ec57600052602060002091601f016020900482015b828111156138eb5782548255916001019190600101906138d0565b5b5090506138f99190613ae0565b5090565b82805482825590600052602060002090810192821561395c5760005260206000209182015b8281111561395b578282908054600181600116156101000203166002900461394b929190613876565b5091600101919060010190613922565b5b5090506139699190613b05565b5090565b610120604051908101604052806000815260200160608152602001606081526020016060815260200160608152602001606081526020016060815260200160608152602001606081525090565b6080604051908101604052806060815260200160608152602001606081526020016000151581525090565b828054600181600116156101000203166002900490600052602060002090601f016020900481019282601f10613a1e5780548555613a5b565b82800160010185558215613a5b57600052602060002091601f016020900482015b82811115613a5a578254825591600101919060010190613a3f565b5b509050613a689190613ae0565b5090565b50805460018160011615610100020316600290046000825580601f10613a925750613ab1565b601f016020900490600052602060002090810190613ab09190613ae0565b5b50565b815481835581811115613adb57818360005260206000209182019101613ada9190613b05565b5b505050565b613b0291905b80821115613afe576000816000905550600101613ae6565b5090565b90565b613b2e91905b80821115613b2a5760008181613b219190613a6c565b50600101613b0b565b5090565b90565b600082601f8301121515613b4457600080fd5b8135613b57613b5282614086565b614059565b91508082526020830160208301858383011115613b7357600080fd5b613b7e83828461410d565b50505092915050565b6000613b938235614103565b905092915050565b600060208284031215613bad57600080fd5b600082013567ffffffffffffffff811115613bc757600080fd5b613bd384828501613b31565b91505092915050565b60008060408385031215613bef57600080fd5b600083013567ffffffffffffffff811115613c0957600080fd5b613c1585828601613b31565b925050602083013567ffffffffffffffff811115613c3257600080fd5b613c3e85828601613b31565b9150509250929050565b600080600060608486031215613c5d57600080fd5b600084013567ffffffffffffffff811115613c7757600080fd5b613c8386828701613b31565b935050602084013567ffffffffffffffff811115613ca057600080fd5b613cac86828701613b31565b925050604084013567ffffffffffffffff811115613cc957600080fd5b613cd586828701613b31565b9150509250925092565b600080600080600080600080610100898b031215613cfc57600080fd5b600089013567ffffffffffffffff811115613d1657600080fd5b613d228b828c01613b31565b985050602089013567ffffffffffffffff811115613d3f57600080fd5b613d4b8b828c01613b31565b975050604089013567ffffffffffffffff811115613d6857600080fd5b613d748b828c01613b31565b9650506060613d858b828c01613b87565b955050608089013567ffffffffffffffff811115613da257600080fd5b613dae8b828c01613b31565b94505060a089013567ffffffffffffffff811115613dcb57600080fd5b613dd78b828c01613b31565b93505060c089013567ffffffffffffffff811115613df457600080fd5b613e008b828c01613b31565b92505060e089013567ffffffffffffffff811115613e1d57600080fd5b613e298b828c01613b31565b9150509295985092959890939650565b6000613e44826140bf565b80845260208401935083602082028501613e5d856140b2565b60005b84811015613e96578383038852613e78838351613eec565b9250613e83826140e0565b9150602088019750600181019050613e60565b508196508694505050505092915050565b613eb0816140ed565b82525050565b6000613ec1826140d5565b808452613ed581602086016020860161411c565b613ede8161414f565b602085010191505092915050565b6000613ef7826140ca565b808452613f0b81602086016020860161411c565b613f148161414f565b602085010191505092915050565b613f2b816140f9565b82525050565b60006020820190508181036000830152613f4b8184613e39565b905092915050565b6000602082019050613f686000830184613ea7565b92915050565b60006040820190508181036000830152613f888185613eb6565b90508181036020830152613f9c8184613eb6565b90509392505050565b600060e0820190508181036000830152613fbf818a613eb6565b90508181036020830152613fd38189613eb6565b9050613fe26040830188613f22565b8181036060830152613ff48187613eb6565b905081810360808301526140088186613eb6565b905081810360a083015261401c8185613eb6565b905081810360c08301526140308184613eb6565b905098975050505050505050565b60006020820190506140536000830184613f22565b92915050565b6000604051905081810181811067ffffffffffffffff8211171561407c57600080fd5b8060405250919050565b600067ffffffffffffffff82111561409d57600080fd5b601f19601f8301169050602081019050919050565b6000602082019050919050565b600081519050919050565b600081519050919050565b600081519050919050565b6000602082019050919050565b60008115159050919050565b6000819050919050565b6000819050919050565b82818337600083830152505050565b60005b8381101561413a57808201518184015260208101905061411f565b83811115614149576000848401525b50505050565b6000601f19601f83011690509190505600a265627a7a7230582040d8a02a7bf4ba1331b4e514a61db8d29d466b9cf2aa7ccae1ebe1f9751c6eed6c6578706572696d656e74616cf50037",
  "source": "//********************************* Entries for testing on remix*************************************\r\n// registerProduct      \"11\", \"Nike\", \"Jordan\", 0, \"It's costly\", \"Pratibha Co.\", \"Mumbai\", \"11:00\"\r\n//                      \"22\", \"Adidas\", \"Predator\", 0, \"It's limited\", \"Singh and sons ltd.\",  \"Ludhiana\", \"12:00\"\r\n//                      \"33\", \"Asics\", \"GT-20009\", 0, \"It's limited\", \"SSIPL.\", \"Haryana\", \"12:00\"\r\n// registerCustomer:     \"81bd53649936d1e82c64ed216d9d7490\", \"Trevor\",\"9999999999\"\r\n//                      \"1c29fb983dbe92474a199631dca38fc6\", \"Edwin\", \"6936666666\"\r\n//                      \"81bd53649936d1e74a199631dc9d7490\", \"Gregory\", \"8881922878\"\r\n//                      \"1c29fb983dbe92482c64ed216d938fc6\", \"Aaditee\", \"7986543210\"\r\n// registerSeller:      \"1111\", \"Lifestyle\", \"Chembur\"\r\n// addSellerToCode:   \"11\", \"67xasdbsdfshjd89724hjdsf\r\n\r\n\r\npragma solidity >=0.4.0 <0.9.0;\r\npragma experimental ABIEncoderV2;\r\n\r\ncontract Manager {\r\n\r\n    address owner;\r\n\r\n    // structure creation for product, customer and seller\r\n\r\n    struct Product {\r\n        uint status;\r\n        string brand;\r\n        string model;\r\n        string description;\r\n        string manufactuerName;\r\n        string manufactuerLocation;\r\n        string manufactuerTimestamp;\r\n        string seller;\r\n        string[] customers;\r\n    }\r\n\r\n\r\n    struct customer {\r\n        string name;\r\n        string phone;\r\n        string[] code; // list of products owned by the customer\r\n        bool isValue;\r\n    }\r\n\r\n    struct seller {\r\n        string name;\r\n        string location;\r\n    }\r\n\r\n    struct manufact {\r\n        string name;\r\n        string location;\r\n    }\r\n\r\n    // mappings to the structures product, customer and seller\r\n\r\n    mapping (string => Product) productArr;\r\n    mapping (string => customer) customerArr;\r\n    mapping (string => seller) sellerArr;\r\n    mapping (string => manufact) manufactArr;\r\n\r\n    // funtion to register product and create code\r\n    function registerProduct(string _code, string _brand, string _model,uint _status, string _description, string _manufactuerName, string _manufactuerLocation, string _manufactuerTimestamp) public  returns (uint) {\r\n        Product storage newCode;\r\n        newCode.brand = _brand;\r\n        newCode.model = _model;\r\n        newCode.status = _status;\r\n        newCode.description = _description;\r\n        newCode.manufactuerName = _manufactuerName;\r\n        newCode.manufactuerLocation = _manufactuerLocation;\r\n        newCode.manufactuerTimestamp = _manufactuerTimestamp;\r\n        productArr[_code] = newCode;\r\n        return 1;\r\n    }\r\n\r\n     // funtion to register customer\r\n\r\n    function registerCustomer(string _hashedEmail, string _name, string _phone) public payable returns (bool) {\r\n        if (customerArr[_hashedEmail].isValue) {\r\n            return false;\r\n        }\r\n        customer storage newCustomer;\r\n        newCustomer.name = _name;\r\n        newCustomer.phone = _phone;\r\n        newCustomer.isValue = true;\r\n        customerArr[_hashedEmail] = newCustomer;\r\n        return true;\r\n    }\r\n    \r\n    // funtion to register seller\r\n\r\n    function registerSeller(string _hashedEmail, string _sellerName,string _sellerLocation) public payable returns (uint){\r\n        seller storage newSeller;\r\n        newSeller.name          = _sellerName;\r\n        newSeller.location      = _sellerLocation;\r\n        sellerArr[_hashedEmail] = newSeller;\r\n        return 1;\r\n    }\r\n\r\n    function registerManufact(string _hashedEmail, string _manufactName,string _manufactLocation) public payable returns (uint){\r\n        manufact storage newManufact;\r\n        newManufact.name          = _manufactName;\r\n        newManufact.location      = _manufactLocation;\r\n        manufactArr[_hashedEmail] = newManufact;\r\n        return 1;\r\n    }\r\n\r\n\r\n    // function to retrieve customer details\r\n\r\n    function getCustomerDetails(string _code) public view returns (string, string) {\r\n        return (customerArr[_code].name, customerArr[_code].phone);\r\n    }\r\n\r\n    // function to retrieve seller details\r\n\r\n    function getSellerDetails(string _code) public view returns (string, string) {\r\n        return (sellerArr[_code].name, sellerArr[_code].location);\r\n    }\r\n\r\n    // function to retrieve manufacturer details\r\n    function getManufactDetails(string _code) public view returns (string, string) {\r\n        return (manufactArr[_code].name, manufactArr[_code].location);\r\n    }\r\n\r\n    // Function for showing product details if the person scanning the product is not the owner\r\n    function getNotOwnedCodeDetails(string _code) public view returns (string, string, uint, string, string, string, string) {\r\n        return (productArr[_code].brand, productArr[_code].model, productArr[_code].status, productArr[_code].description, productArr[_code].manufactuerName, productArr[_code].manufactuerLocation, productArr[_code].manufactuerTimestamp);\r\n    }\r\n\r\n    // Function for showing product details if the person scanning the product is the owner\r\n    function getOwnedCodeDetails(string _code) public view returns (string, string) {\r\n        return (sellerArr[productArr[_code].seller].name, sellerArr[productArr[_code].seller].location);\r\n    }\r\n    \r\n   // Given a customer returns all the product codes he owwns\r\n    function getCodes(string _customer) public view returns(string[]) {\r\n        return customerArr[_customer].code;\r\n    }\r\n\r\n\r\n    // Function for creating a new seller\r\n    function addSellerToCode(string _code, string _hashedEmailseller) public payable returns (uint) {\r\n        productArr[_code].seller = _hashedEmailseller;\r\n        return 1;\r\n    }\r\n\r\n    // Function to report stolen\r\n    function reportStolen(string _code, string _customer) public payable returns (bool) {\r\n        uint i;\r\n        // Checking if the customer exists\r\n        if (customerArr[_customer].isValue) {\r\n            // Checking if the customer owns the product\r\n            for (i = 0; i < customerArr[_customer].code.length; i++) {\r\n                if (compareStrings(customerArr[_customer].code[i], _code)) {\r\n                    productArr[_code].status = 2;        // Changing the status to stolen\r\n                }\r\n                return true;\r\n            }\r\n        }\r\n        return false;\r\n    }\r\n\r\n    function changeOwner(string _code, string _oldCustomer, string _newCustomer) public payable returns (bool) {\r\n        uint i;\r\n        bool flag = false;\r\n         //Creating objects for code,oldCustomer,newCustomer\r\n        Product memory product = productArr[_code];\r\n        uint len_product_customer = product.customers.length;\r\n        customer memory oldCustomer = customerArr[_oldCustomer];\r\n        uint len_oldCustomer_code = customerArr[_oldCustomer].code.length;\r\n        customer memory newCustomer = customerArr[_newCustomer];\r\n\r\n        //Check if oldCustomer and newCustomer have an account\r\n        if (oldCustomer.isValue && newCustomer.isValue) {\r\n            //Check if oldCustomer is owner\r\n            for (i = 0; i < len_oldCustomer_code; i++) {\r\n                if (compareStrings(oldCustomer.code[i], _code)) {\r\n                    flag = true;\r\n                    break;\r\n                }\r\n            }\r\n\r\n            if (flag == true) {\r\n                //Swaping oldCustomer with newCustomer in product\r\n                for (i = 0; i < len_product_customer; i++) {\r\n                    if (compareStrings(product.customers[i], _oldCustomer)) {\r\n                        productArr[_code].customers[i] = _newCustomer;\r\n                        break;\r\n                    }\r\n                }\r\n\r\n                // Removing product from oldCustomer\r\n                for (i = 0; i < len_oldCustomer_code; i++) {\r\n                    if (compareStrings(customerArr[_oldCustomer].code[i], _code)) {\r\n                        remove(i, customerArr[_oldCustomer].code);\r\n                        // Adding product to newCustomer\r\n                        uint len = customerArr[_newCustomer].code.length;\r\n                        if(len == 0){\r\n                            customerArr[_newCustomer].code.push(_code);\r\n                            customerArr[_newCustomer].code.push(\"hack\");\r\n                        } else {\r\n                            customerArr[_newCustomer].code[len-1] = _code;\r\n                            customerArr[_newCustomer].code.push(\"hack\");\r\n                        }\r\n                        return true;\r\n                    }\r\n                }\r\n            }\r\n        }\r\n        return false;\r\n    }\r\n\r\n\r\n    function initialOwner(string _code, string _seller, string _customer) public payable returns(bool) {\r\n            uint i;\r\n            if (compareStrings(productArr[_code].seller, _seller)) {       // Check if seller owns the prodct\r\n                if (customerArr[_customer].isValue) {                       // Check if Customer has an account\r\n                    productArr[_code].customers.push(_customer);               // Adding customer in code\r\n                    productArr[_code].status = 1;\r\n                    uint len = customerArr[_customer].code.length;\r\n                    if(len == 0) {\r\n                        customerArr[_customer].code.push(_code);\r\n                        // customerArr[_customer].code.push(\"hack\");\r\n                    } else {\r\n                    customerArr[_customer].code[len-1] = _code;\r\n                    // customerArr[_customer].code.push(\"hack\");\r\n                    }\r\n                    return true;\r\n                }\r\n            }\r\n            return false;\r\n        }\r\n\r\n  \r\n    // Cannot directly compare strings in Solidity\r\n    // This function hashes the 2 strings and then compares the 2 hashes\r\n    function compareStrings(string a, string b) internal returns (bool) {\r\n    \treturn keccak256(a) == keccak256(b);\r\n    }\r\n\r\n    // Function to delete an element from an array\r\n    function remove(uint index, string[] storage array) internal returns(bool) {\r\n        if (index >= array.length)\r\n            return false;\r\n\r\n        for (uint i = index; i < array.length-1; i++) {\r\n            array[i] = array[i+1];\r\n        }\r\n        delete array[array.length-1];\r\n        array.length--;\r\n        return true;\r\n    }\r\n\r\n    // Function to convert string to bytes32\r\n    function stringToBytes32(string memory source) internal returns (bytes32 result) {\r\n        bytes memory tempEmptyStringTest = bytes(source);\r\n        if (tempEmptyStringTest.length == 0) {\r\n            return 0x0;\r\n        }\r\n        assembly {\r\n            result := mload(add(source, 32))\r\n        }\r\n    }\r\n}",
  "sourcePath": "E:\\Sem 5\\mini project\\Implementation\\Truffle\\contracts\\Manager.sol",
  "compiler": {
    "name": "solc",
    "version": "0.4.26+commit.4563c3fc.Emscripten.clang"
  },
  "schemaVersion": "3.4.4",
  "updatedAt": "2022-01-22T12:43:11.639Z",
  "networkType": "ethereum",
  "devdoc": {
    "methods": {}
  },
  "userdoc": {
    "methods": {}
  }
}